{
  "_format": "hh-sol-artifact-1",
  "contractName": "PetCareRewards",
  "sourceName": "contracts/PetCareRewards.sol",
  "abi": [
    {
      "inputs": [
        {
          "internalType": "address",
          "name": "_dummyToken",
          "type": "address"
        },
        {
          "internalType": "address",
          "name": "_reserveWallet",
          "type": "address"
        }
      ],
      "stateMutability": "nonpayable",
      "type": "constructor"
    },
    {
      "anonymous": false,
      "inputs": [
        {
          "indexed": true,
          "internalType": "address",
          "name": "user",
          "type": "address"
        },
        {
          "indexed": false,
          "internalType": "uint256",
          "name": "amount",
          "type": "uint256"
        }
      ],
      "name": "RewardIssued",
      "type": "event"
    },
    {
      "inputs": [],
      "name": "dummyToken",
      "outputs": [
        {
          "internalType": "contract IERC20",
          "name": "",
          "type": "address"
        }
      ],
      "stateMutability": "view",
      "type": "function"
    },
    {
      "inputs": [],
      "name": "reserveWallet",
      "outputs": [
        {
          "internalType": "address",
          "name": "",
          "type": "address"
        }
      ],
      "stateMutability": "view",
      "type": "function"
    },
    {
      "inputs": [],
      "name": "rewardAmount",
      "outputs": [
        {
          "internalType": "uint256",
          "name": "",
          "type": "uint256"
        }
      ],
      "stateMutability": "view",
      "type": "function"
    },
    {
      "inputs": [
        {
          "internalType": "address",
          "name": "user",
          "type": "address"
        }
      ],
      "name": "rewardUser",
      "outputs": [],
      "stateMutability": "nonpayable",
      "type": "function"
    }
  ],
  "bytecode": "0x608060405266b1a2bc2ec5000060025534801561001b57600080fd5b5060405161069b38038061069b833981810160405281019061003d9190610128565b816000806101000a81548173ffffffffffffffffffffffffffffffffffffffff021916908373ffffffffffffffffffffffffffffffffffffffff16021790555080600160006101000a81548173ffffffffffffffffffffffffffffffffffffffff021916908373ffffffffffffffffffffffffffffffffffffffff1602179055505050610168565b600080fd5b600073ffffffffffffffffffffffffffffffffffffffff82169050919050565b60006100f5826100ca565b9050919050565b610105816100ea565b811461011057600080fd5b50565b600081519050610122816100fc565b92915050565b6000806040838503121561013f5761013e6100c5565b5b600061014d85828601610113565b925050602061015e85828601610113565b9150509250929050565b610524806101776000396000f3fe608060405234801561001057600080fd5b506004361061004c5760003560e01c806367479ec514610051578063a6afd7db1461006f578063d72b11bd1461008b578063f7b2a7be146100a9575b600080fd5b6100596100c7565b60405161006691906102ec565b60405180910390f35b6100896004803603810190610084919061034a565b6100eb565b005b610093610241565b6040516100a09190610386565b60405180910390f35b6100b1610267565b6040516100be91906103ba565b60405180910390f35b60008054906101000a900473ffffffffffffffffffffffffffffffffffffffff1681565b60008054906101000a900473ffffffffffffffffffffffffffffffffffffffff1673ffffffffffffffffffffffffffffffffffffffff166323b872dd600160009054906101000a900473ffffffffffffffffffffffffffffffffffffffff16836002546040518463ffffffff1660e01b815260040161016c939291906103d5565b6020604051808303816000875af115801561018b573d6000803e3d6000fd5b505050506040513d601f19601f820116820180604052508101906101af9190610444565b6101ee576040517f08c379a00000000000000000000000000000000000000000000000000000000081526004016101e5906104ce565b60405180910390fd5b8073ffffffffffffffffffffffffffffffffffffffff167ff9b6ec770c96c3a6f9225bf3a8463a8ad03e884448af07b4ecd4d19d628946ee60025460405161023691906103ba565b60405180910390a250565b600160009054906101000a900473ffffffffffffffffffffffffffffffffffffffff1681565b60025481565b600073ffffffffffffffffffffffffffffffffffffffff82169050919050565b6000819050919050565b60006102b26102ad6102a88461026d565b61028d565b61026d565b9050919050565b60006102c482610297565b9050919050565b60006102d6826102b9565b9050919050565b6102e6816102cb565b82525050565b600060208201905061030160008301846102dd565b92915050565b600080fd5b60006103178261026d565b9050919050565b6103278161030c565b811461033257600080fd5b50565b6000813590506103448161031e565b92915050565b6000602082840312156103605761035f610307565b5b600061036e84828501610335565b91505092915050565b6103808161030c565b82525050565b600060208201905061039b6000830184610377565b92915050565b6000819050919050565b6103b4816103a1565b82525050565b60006020820190506103cf60008301846103ab565b92915050565b60006060820190506103ea6000830186610377565b6103f76020830185610377565b61040460408301846103ab565b949350505050565b60008115159050919050565b6104218161040c565b811461042c57600080fd5b50565b60008151905061043e81610418565b92915050565b60006020828403121561045a57610459610307565b5b60006104688482850161042f565b91505092915050565b600082825260208201905092915050565b7f546f6b656e207472616e73666572206661696c65640000000000000000000000600082015250565b60006104b8601583610471565b91506104c382610482565b602082019050919050565b600060208201905081810360008301526104e7816104ab565b905091905056fea2646970667358221220e4960582e1308010d33f689722b8a0e20f9b58575a63556175655e1b23cffbfd64736f6c63430008140033",
  "linkReferences": {},
  "deployedLinkReferences": {}
}